S01200006176725F6863737230342E7372656356
S11300000C9434000C947F000C9451000C94510017
S11300100C9451000C9451000C9451000C94510018
S11300200C9451000C9451000C9451000C940D014B
S11300300C9451000C9451000C9451000C945100F8
S11300400C9451000C9451000C9451000C945100E8
S11300500C9451000C9451000C9451000C945100D8
S11300600C9451000C94510011241FBECFEFD8E022
S1130070DEBFCDBF11E0A0E0B1E0ECE0F3E002C0F0
S113008005900D92AC31B107D9F721E0ACE1B1E0B4
S113009001C01D92A132B207E1F70E94A3000C94A3
S11300A084010C94000084B1816084B98AB18B7F8F
S11300B08AB983E08093690081E08DBB089585B19E
S11300C0816085B983E08A95F1F7000085B18E7F60
S11300D085B9089520911C0130911D0180911E0164
S11300E090911F01281B390BAFE9B6E40E9440012F
S11300F0929582958F7089279F70892708951F9202
S11301000F920FB60F9211248F939F934A9B0CC0AA
S1130110809184009091850090931F0180931E012B
S113012082E08093690008C08091840090918500EA
S113013090931D0180931C019F918F910F900FBE8E
S11301400F901F901895CF93DF93CDB7DEB72A9702
S11301500FB6F894DEBF0FBECDBF0E941C010E94F3
S1130160F0000E9402010E945300789484B18E60D2
S113017084B9809120018823E1F3109220010E9428
S11301805F000E946A008C014AE0BE016F5F7F4FEE
S11301900E944F0180E091E00E943001CE0101965F
S11301A00E94300186E191E00E94300185B1817F97
S11301B085B90333110528F085B1826085B918BC6F
S11301C0D8CF0531110530F085B1846085B980E45C
S11301D088BDCFCF85B1886085B980E888BDC9CF97
S11301E0E1E8F0E0808188608083808182608083A0
S11301F082E080936F008BEE95ED9093890080935D
S11302008800089584B5816084BD84B5806284BD0E
S113021085B5826085BD18BC08951F920F920FB6F4
S11302200F9211248F9381E0809320018F910F907E
S11302300FBE0F901F90189582E08093C50085EC47
S11302408093C40088E18093C10086E08093C2005B
S113025008959091C00095FFFCCF8093C600089547
S1130260CF93DF93EC018881811104C006C00E9402
S11302702901219688818111FACFDF91CF910895C8
S1130280A29FB001B39FC001A39F700D811D1124D3
S1130290911DB29F700D811D1124911D0895BB27DE
S11302A04A3031F4992322F4BDE2909581959F4F11
S11302B00C945B01BB27FB015527AA27880F991FC4
S11302C0AA1FA41710F0A41B83955051B9F7A05D81
S11302D0AA3308F0A95DA193009779F7B111B193FE
S11302E01192CB010C947401DC01FC01672F719114
S11302F07723E1F7329704C07C916D937083629108
S10F0300AE17BF07C8F30895F894FFCFB0
S113030C52656D61696E696E672064697374616EA0
S10F031C6365203D200020636D0D0A0085
S9030000FC
